{
  "_format": "hh3-artifact-1",
  "contractName": "GoInvestMeCore",
  "sourceName": "contracts/GoInvestMeCore.sol",
  "abi": [
    {
      "inputs": [],
      "stateMutability": "nonpayable",
      "type": "constructor"
    },
    {
      "inputs": [],
      "name": "EnforcedPause",
      "type": "error"
    },
    {
      "inputs": [],
      "name": "ExpectedPause",
      "type": "error"
    },
    {
      "inputs": [
        {
          "internalType": "address",
          "name": "owner",
          "type": "address"
        }
      ],
      "name": "OwnableInvalidOwner",
      "type": "error"
    },
    {
      "inputs": [
        {
          "internalType": "address",
          "name": "account",
          "type": "address"
        }
      ],
      "name": "OwnableUnauthorizedAccount",
      "type": "error"
    },
    {
      "inputs": [],
      "name": "ReentrancyGuardReentrantCall",
      "type": "error"
    },
    {
      "anonymous": false,
      "inputs": [
        {
          "indexed": true,
          "internalType": "address",
          "name": "entrepreneur",
          "type": "address"
        },
        {
          "indexed": false,
          "internalType": "string",
          "name": "projectName",
          "type": "string"
        },
        {
          "indexed": false,
          "internalType": "uint256",
          "name": "totalSupply",
          "type": "uint256"
        },
        {
          "indexed": false,
          "internalType": "uint256",
          "name": "pricePerCoin",
          "type": "uint256"
        },
        {
          "indexed": false,
          "internalType": "uint256",
          "name": "timestamp",
          "type": "uint256"
        }
      ],
      "name": "CoinCreated",
      "type": "event"
    },
    {
      "anonymous": false,
      "inputs": [
        {
          "indexed": true,
          "internalType": "address",
          "name": "investor",
          "type": "address"
        },
        {
          "indexed": true,
          "internalType": "address",
          "name": "entrepreneur",
          "type": "address"
        },
        {
          "indexed": false,
          "internalType": "uint256",
          "name": "amount",
          "type": "uint256"
        },
        {
          "indexed": false,
          "internalType": "uint256",
          "name": "totalCost",
          "type": "uint256"
        },
        {
          "indexed": false,
          "internalType": "uint256",
          "name": "timestamp",
          "type": "uint256"
        }
      ],
      "name": "CoinPurchased",
      "type": "event"
    },
    {
      "anonymous": false,
      "inputs": [
        {
          "indexed": true,
          "internalType": "address",
          "name": "entrepreneur",
          "type": "address"
        },
        {
          "indexed": false,
          "internalType": "bool",
          "name": "active",
          "type": "bool"
        }
      ],
      "name": "CoinStatusChanged",
      "type": "event"
    },
    {
      "anonymous": false,
      "inputs": [
        {
          "indexed": true,
          "internalType": "address",
          "name": "entrepreneur",
          "type": "address"
        },
        {
          "indexed": false,
          "internalType": "string",
          "name": "newDescription",
          "type": "string"
        },
        {
          "indexed": false,
          "internalType": "string",
          "name": "newWebsiteUrl",
          "type": "string"
        }
      ],
      "name": "CoinUpdated",
      "type": "event"
    },
    {
      "anonymous": false,
      "inputs": [
        {
          "indexed": true,
          "internalType": "address",
          "name": "entrepreneur",
          "type": "address"
        },
        {
          "indexed": false,
          "internalType": "uint256",
          "name": "amount",
          "type": "uint256"
        }
      ],
      "name": "EmergencyWithdraw",
      "type": "event"
    },
    {
      "anonymous": false,
      "inputs": [
        {
          "indexed": true,
          "internalType": "address",
          "name": "previousOwner",
          "type": "address"
        },
        {
          "indexed": true,
          "internalType": "address",
          "name": "newOwner",
          "type": "address"
        }
      ],
      "name": "OwnershipTransferred",
      "type": "event"
    },
    {
      "anonymous": false,
      "inputs": [
        {
          "indexed": false,
          "internalType": "address",
          "name": "account",
          "type": "address"
        }
      ],
      "name": "Paused",
      "type": "event"
    },
    {
      "anonymous": false,
      "inputs": [
        {
          "indexed": false,
          "internalType": "address",
          "name": "account",
          "type": "address"
        }
      ],
      "name": "Unpaused",
      "type": "event"
    },
    {
      "inputs": [],
      "name": "MAX_DESCRIPTION_LENGTH",
      "outputs": [
        {
          "internalType": "uint256",
          "name": "",
          "type": "uint256"
        }
      ],
      "stateMutability": "view",
      "type": "function"
    },
    {
      "inputs": [],
      "name": "MAX_PRICE",
      "outputs": [
        {
          "internalType": "uint256",
          "name": "",
          "type": "uint256"
        }
      ],
      "stateMutability": "view",
      "type": "function"
    },
    {
      "inputs": [],
      "name": "MAX_SUPPLY",
      "outputs": [
        {
          "internalType": "uint256",
          "name": "",
          "type": "uint256"
        }
      ],
      "stateMutability": "view",
      "type": "function"
    },
    {
      "inputs": [],
      "name": "MIN_PRICE",
      "outputs": [
        {
          "internalType": "uint256",
          "name": "",
          "type": "uint256"
        }
      ],
      "stateMutability": "view",
      "type": "function"
    },
    {
      "inputs": [],
      "name": "MIN_SUPPLY",
      "outputs": [
        {
          "internalType": "uint256",
          "name": "",
          "type": "uint256"
        }
      ],
      "stateMutability": "view",
      "type": "function"
    },
    {
      "inputs": [
        {
          "internalType": "address",
          "name": "entrepreneur",
          "type": "address"
        },
        {
          "internalType": "uint256",
          "name": "amount",
          "type": "uint256"
        }
      ],
      "name": "buyCoin",
      "outputs": [],
      "stateMutability": "payable",
      "type": "function"
    },
    {
      "inputs": [
        {
          "internalType": "address",
          "name": "",
          "type": "address"
        }
      ],
      "name": "coins",
      "outputs": [
        {
          "internalType": "string",
          "name": "projectName",
          "type": "string"
        },
        {
          "internalType": "string",
          "name": "description",
          "type": "string"
        },
        {
          "internalType": "string",
          "name": "websiteUrl",
          "type": "string"
        },
        {
          "internalType": "uint256",
          "name": "totalSupply",
          "type": "uint256"
        },
        {
          "internalType": "uint256",
          "name": "pricePerCoin",
          "type": "uint256"
        },
        {
          "internalType": "uint256",
          "name": "coinsSold",
          "type": "uint256"
        },
        {
          "internalType": "uint256",
          "name": "createdAt",
          "type": "uint256"
        },
        {
          "internalType": "bool",
          "name": "exists",
          "type": "bool"
        },
        {
          "internalType": "bool",
          "name": "active",
          "type": "bool"
        }
      ],
      "stateMutability": "view",
      "type": "function"
    },
    {
      "inputs": [
        {
          "internalType": "string",
          "name": "projectName",
          "type": "string"
        },
        {
          "internalType": "string",
          "name": "description",
          "type": "string"
        },
        {
          "internalType": "string",
          "name": "websiteUrl",
          "type": "string"
        },
        {
          "internalType": "uint256",
          "name": "totalSupply",
          "type": "uint256"
        },
        {
          "internalType": "uint256",
          "name": "pricePerCoin",
          "type": "uint256"
        }
      ],
      "name": "createCoin",
      "outputs": [],
      "stateMutability": "nonpayable",
      "type": "function"
    },
    {
      "inputs": [],
      "name": "emergencyWithdraw",
      "outputs": [],
      "stateMutability": "nonpayable",
      "type": "function"
    },
    {
      "inputs": [],
      "name": "getAllEntrepreneurs",
      "outputs": [
        {
          "internalType": "address[]",
          "name": "entrepreneurs",
          "type": "address[]"
        }
      ],
      "stateMutability": "view",
      "type": "function"
    },
    {
      "inputs": [
        {
          "internalType": "address",
          "name": "entrepreneur",
          "type": "address"
        },
        {
          "internalType": "uint256",
          "name": "maxInvestors",
          "type": "uint256"
        }
      ],
      "name": "getCapTable",
      "outputs": [
        {
          "internalType": "address[]",
          "name": "investors",
          "type": "address[]"
        },
        {
          "internalType": "uint256[]",
          "name": "coinBalances",
          "type": "uint256[]"
        },
        {
          "internalType": "uint256[]",
          "name": "percentages",
          "type": "uint256[]"
        },
        {
          "internalType": "uint256",
          "name": "totalInvestors",
          "type": "uint256"
        }
      ],
      "stateMutability": "view",
      "type": "function"
    },
    {
      "inputs": [
        {
          "internalType": "address",
          "name": "entrepreneur",
          "type": "address"
        }
      ],
      "name": "getCapTableSummary",
      "outputs": [
        {
          "internalType": "uint256",
          "name": "soldPercentage",
          "type": "uint256"
        },
        {
          "internalType": "uint256",
          "name": "availablePercentage",
          "type": "uint256"
        },
        {
          "internalType": "uint256",
          "name": "totalRaised",
          "type": "uint256"
        }
      ],
      "stateMutability": "view",
      "type": "function"
    },
    {
      "inputs": [
        {
          "internalType": "address",
          "name": "entrepreneur",
          "type": "address"
        }
      ],
      "name": "getCoinInfo",
      "outputs": [
        {
          "internalType": "string",
          "name": "projectName",
          "type": "string"
        },
        {
          "internalType": "string",
          "name": "description",
          "type": "string"
        },
        {
          "internalType": "string",
          "name": "websiteUrl",
          "type": "string"
        },
        {
          "internalType": "uint256",
          "name": "totalSupply",
          "type": "uint256"
        },
        {
          "internalType": "uint256",
          "name": "pricePerCoin",
          "type": "uint256"
        },
        {
          "internalType": "uint256",
          "name": "coinsSold",
          "type": "uint256"
        },
        {
          "internalType": "uint256",
          "name": "coinsAvailable",
          "type": "uint256"
        },
        {
          "internalType": "uint256",
          "name": "createdAt",
          "type": "uint256"
        },
        {
          "internalType": "bool",
          "name": "active",
          "type": "bool"
        }
      ],
      "stateMutability": "view",
      "type": "function"
    },
    {
      "inputs": [],
      "name": "getEntrepreneurCount",
      "outputs": [
        {
          "internalType": "uint256",
          "name": "count",
          "type": "uint256"
        }
      ],
      "stateMutability": "view",
      "type": "function"
    },
    {
      "inputs": [
        {
          "internalType": "uint256",
          "name": "offset",
          "type": "uint256"
        },
        {
          "internalType": "uint256",
          "name": "limit",
          "type": "uint256"
        }
      ],
      "name": "getEntrepreneursPaginated",
      "outputs": [
        {
          "internalType": "address[]",
          "name": "result",
          "type": "address[]"
        }
      ],
      "stateMutability": "view",
      "type": "function"
    },
    {
      "inputs": [
        {
          "internalType": "address",
          "name": "investor",
          "type": "address"
        },
        {
          "internalType": "address",
          "name": "entrepreneur",
          "type": "address"
        }
      ],
      "name": "getInvestment",
      "outputs": [
        {
          "internalType": "uint256",
          "name": "balance",
          "type": "uint256"
        }
      ],
      "stateMutability": "view",
      "type": "function"
    },
    {
      "inputs": [
        {
          "internalType": "address",
          "name": "investor",
          "type": "address"
        },
        {
          "internalType": "address",
          "name": "entrepreneur",
          "type": "address"
        }
      ],
      "name": "getOwnershipPercentage",
      "outputs": [
        {
          "internalType": "uint256",
          "name": "percentage",
          "type": "uint256"
        }
      ],
      "stateMutability": "view",
      "type": "function"
    },
    {
      "inputs": [
        {
          "internalType": "address",
          "name": "entrepreneur",
          "type": "address"
        }
      ],
      "name": "hasCoin",
      "outputs": [
        {
          "internalType": "bool",
          "name": "exists",
          "type": "bool"
        }
      ],
      "stateMutability": "view",
      "type": "function"
    },
    {
      "inputs": [
        {
          "internalType": "address",
          "name": "",
          "type": "address"
        },
        {
          "internalType": "address",
          "name": "",
          "type": "address"
        }
      ],
      "name": "investments",
      "outputs": [
        {
          "internalType": "uint256",
          "name": "",
          "type": "uint256"
        }
      ],
      "stateMutability": "view",
      "type": "function"
    },
    {
      "inputs": [],
      "name": "owner",
      "outputs": [
        {
          "internalType": "address",
          "name": "",
          "type": "address"
        }
      ],
      "stateMutability": "view",
      "type": "function"
    },
    {
      "inputs": [],
      "name": "pause",
      "outputs": [],
      "stateMutability": "nonpayable",
      "type": "function"
    },
    {
      "inputs": [],
      "name": "paused",
      "outputs": [
        {
          "internalType": "bool",
          "name": "",
          "type": "bool"
        }
      ],
      "stateMutability": "view",
      "type": "function"
    },
    {
      "inputs": [],
      "name": "renounceOwnership",
      "outputs": [],
      "stateMutability": "nonpayable",
      "type": "function"
    },
    {
      "inputs": [
        {
          "internalType": "bool",
          "name": "active",
          "type": "bool"
        }
      ],
      "name": "setCoinActive",
      "outputs": [],
      "stateMutability": "nonpayable",
      "type": "function"
    },
    {
      "inputs": [
        {
          "internalType": "address",
          "name": "newOwner",
          "type": "address"
        }
      ],
      "name": "transferOwnership",
      "outputs": [],
      "stateMutability": "nonpayable",
      "type": "function"
    },
    {
      "inputs": [],
      "name": "unpause",
      "outputs": [],
      "stateMutability": "nonpayable",
      "type": "function"
    },
    {
      "inputs": [
        {
          "internalType": "string",
          "name": "newDescription",
          "type": "string"
        },
        {
          "internalType": "string",
          "name": "newWebsiteUrl",
          "type": "string"
        }
      ],
      "name": "updateCoinInfo",
      "outputs": [],
      "stateMutability": "nonpayable",
      "type": "function"
    },
    {
      "inputs": [],
      "name": "version",
      "outputs": [
        {
          "internalType": "string",
          "name": "versionString",
          "type": "string"
        }
      ],
      "stateMutability": "pure",
      "type": "function"
    }
  ],
  "bytecode": "0x608060405234801561000f575f5ffd5b503360015f819055505f73ffffffffffffffffffffffffffffffffffffffff168173ffffffffffffffffffffffffffffffffffffffff1603610088575f6040517f1e4fbdf700000000000000000000000000000000000000000000000000000000815260040161007f919061019e565b60405180910390fd5b6100978161009d60201b60201c565b506101b7565b5f60018054906101000a900473ffffffffffffffffffffffffffffffffffffffff169050816001806101000a81548173ffffffffffffffffffffffffffffffffffffffff021916908373ffffffffffffffffffffffffffffffffffffffff1602179055508173ffffffffffffffffffffffffffffffffffffffff168173ffffffffffffffffffffffffffffffffffffffff167f8be0079c531659141344cd1fd0a4f28419497f9722a3daafe3b4186f6b6457e060405160405180910390a35050565b5f73ffffffffffffffffffffffffffffffffffffffff82169050919050565b5f6101888261015f565b9050919050565b6101988161017e565b82525050565b5f6020820190506101b15f83018461018f565b92915050565b614766806101c45f395ff3fe6080604052600436106101b6575f3560e01c8063852ad6e8116100eb578063c2df008311610089578063db2e21bc11610063578063db2e21bc146105f9578063e8dd46551461060f578063f2fde38b14610653578063f8585b561461067b576101b6565b8063c2df008314610542578063cac7495c1461057e578063d838a700146105ba576101b6565b806397780020116100c55780639778002014610478578063a9e6883a146104b4578063aba44b66146104dc578063ad9f20a614610518576101b6565b8063852ad6e8146103fa5780638da5cb5b146104245780639201ea0a1461044e576101b6565b806354fd4d5011610158578063715018a611610132578063715018a61461034e5780637d0f7a8814610364578063815a6611146103a85780638456cb59146103e4576101b6565b806354fd4d50146102bc57806357f927eb146102e65780635c975abb14610324576101b6565b8063301f31de11610194578063301f31de1461022857806332cb6b0c1461025257806335917c641461027c5780633f4ba83a146102a6576101b6565b806301c11d96146101ba5780631da98021146101e45780631f8593051461020c575b5f5ffd5b3480156101c5575f5ffd5b506101ce6106a3565b6040516101db91906130dc565b60405180910390f35b3480156101ef575f5ffd5b5061020a6004803603810190610205919061326c565b6106b0565b005b61022660048036038101906102219190613391565b610ba7565b005b348015610233575f5ffd5b5061023c6110ff565b60405161024991906130dc565b60405180910390f35b34801561025d575f5ffd5b5061026661110b565b60405161027391906130dc565b60405180910390f35b348015610287575f5ffd5b50610290611112565b60405161029d91906130dc565b60405180910390f35b3480156102b1575f5ffd5b506102ba611117565b005b3480156102c7575f5ffd5b506102d0611129565b6040516102dd919061342f565b60405180910390f35b3480156102f1575f5ffd5b5061030c6004803603810190610307919061344f565b611166565b60405161031b9392919061347a565b60405180910390f35b34801561032f575f5ffd5b506103386114bb565b60405161034591906134c9565b60405180910390f35b348015610359575f5ffd5b506103626114d0565b005b34801561036f575f5ffd5b5061038a6004803603810190610385919061344f565b6114e3565b60405161039f999897969594939291906134e2565b60405180910390f35b3480156103b3575f5ffd5b506103ce60048036038101906103c99190613582565b6116d8565b6040516103db91906130dc565b60405180910390f35b3480156103ef575f5ffd5b506103f8611a77565b005b348015610405575f5ffd5b5061040e611a89565b60405161041b9190613677565b60405180910390f35b34801561042f575f5ffd5b50610438611b14565b60405161044591906136a6565b60405180910390f35b348015610459575f5ffd5b50610462611b3b565b60405161046f91906130dc565b60405180910390f35b348015610483575f5ffd5b5061049e60048036038101906104999190613582565b611b41565b6040516104ab91906130dc565b60405180910390f35b3480156104bf575f5ffd5b506104da60048036038101906104d591906136bf565b611b61565b005b3480156104e7575f5ffd5b5061050260048036038101906104fd919061344f565b611d76565b60405161050f91906134c9565b60405180910390f35b348015610523575f5ffd5b5061052c611dcb565b60405161053991906130dc565b60405180910390f35b34801561054d575f5ffd5b5061056860048036038101906105639190613735565b611dd5565b6040516105759190613677565b60405180910390f35b348015610589575f5ffd5b506105a4600480360381019061059f9190613582565b611f54565b6040516105b191906130dc565b60405180910390f35b3480156105c5575f5ffd5b506105e060048036038101906105db9190613391565b611fd6565b6040516105f0949392919061382a565b60405180910390f35b348015610604575f5ffd5b5061060d61277e565b005b34801561061a575f5ffd5b506106356004803603810190610630919061344f565b6128dc565b60405161064a99989796959493929190613882565b60405180910390f35b34801561065e575f5ffd5b506106796004803603810190610674919061344f565b612c29565b005b348015610686575f5ffd5b506106a1600480360381019061069c919061394c565b612cad565b005b68056bc75e2d6310000081565b6106b8612de4565b818160648210156106fe576040517f08c379a00000000000000000000000000000000000000000000000000000000081526004016106f5906139c1565b60405180910390fd5b62989680821115610744576040517f08c379a000000000000000000000000000000000000000000000000000000000815260040161073b90613a29565b60405180910390fd5b655af3107a400081101561078d576040517f08c379a000000000000000000000000000000000000000000000000000000000815260040161078490613a91565b60405180910390fd5b68056bc75e2d631000008111156107d9576040517f08c379a00000000000000000000000000000000000000000000000000000000081526004016107d090613af9565b60405180910390fd5b60025f3373ffffffffffffffffffffffffffffffffffffffff1673ffffffffffffffffffffffffffffffffffffffff1681526020019081526020015f206007015f9054906101000a900460ff1615610866576040517f08c379a000000000000000000000000000000000000000000000000000000000815260040161085d90613b61565b60405180910390fd5b5f8751116108a9576040517f08c379a00000000000000000000000000000000000000000000000000000000081526004016108a090613bc9565b60405180910390fd5b6064875111156108ee576040517f08c379a00000000000000000000000000000000000000000000000000000000081526004016108e590613c31565b60405180910390fd5b5f865111610931576040517f08c379a000000000000000000000000000000000000000000000000000000000815260040161092890613c99565b60405180910390fd5b6103e886511115610977576040517f08c379a000000000000000000000000000000000000000000000000000000000815260040161096e90613d01565b60405180910390fd5b60c8855111156109bc576040517f08c379a00000000000000000000000000000000000000000000000000000000081526004016109b390613d69565b60405180910390fd5b6040518061012001604052808881526020018781526020018681526020018581526020018481526020015f81526020014281526020016001151581526020016001151581525060025f3373ffffffffffffffffffffffffffffffffffffffff1673ffffffffffffffffffffffffffffffffffffffff1681526020019081526020015f205f820151815f019081610a529190613f84565b506020820151816001019081610a689190613f84565b506040820151816002019081610a7e9190613f84565b50606082015181600301556080820151816004015560a0820151816005015560c0820151816006015560e0820151816007015f6101000a81548160ff0219169083151502179055506101008201518160070160016101000a81548160ff021916908315150217905550905050600433908060018154018082558091505060019003905f5260205f20015f9091909190916101000a81548173ffffffffffffffffffffffffffffffffffffffff021916908373ffffffffffffffffffffffffffffffffffffffff1602179055503373ffffffffffffffffffffffffffffffffffffffff167f2d2c25913b2f6a4b1598f8c47868727ccb170a2a7825b2f3ece33773710b66b888868642604051610b969493929190614053565b60405180910390a250505050505050565b610baf612de4565b610bb7612e25565b8160025f8273ffffffffffffffffffffffffffffffffffffffff1673ffffffffffffffffffffffffffffffffffffffff1681526020019081526020015f206007015f9054906101000a900460ff16610c44576040517f08c379a0000000000000000000000000000000000000000000000000000000008152600401610c3b906140e7565b60405180910390fd5b8260025f8273ffffffffffffffffffffffffffffffffffffffff1673ffffffffffffffffffffffffffffffffffffffff1681526020019081526020015f2060070160019054906101000a900460ff16610cd2576040517f08c379a0000000000000000000000000000000000000000000000000000000008152600401610cc99061414f565b60405180910390fd5b5f8311610d14576040517f08c379a0000000000000000000000000000000000000000000000000000000008152600401610d0b906141b7565b60405180910390fd5b3373ffffffffffffffffffffffffffffffffffffffff168473ffffffffffffffffffffffffffffffffffffffff1603610d82576040517f08c379a0000000000000000000000000000000000000000000000000000000008152600401610d799061421f565b60405180910390fd5b5f60025f8673ffffffffffffffffffffffffffffffffffffffff1673ffffffffffffffffffffffffffffffffffffffff1681526020019081526020015f2090505f81600501548260030154610dd7919061426a565b905080851115610e1c576040517f08c379a0000000000000000000000000000000000000000000000000000000008152600401610e13906142e7565b60405180910390fd5b5f826004015486610e2d9190614305565b905080341015610e72576040517f08c379a0000000000000000000000000000000000000000000000000000000008152600401610e6990614390565b60405180910390fd5b85836005015f828254610e8591906143ae565b925050819055508560035f3373ffffffffffffffffffffffffffffffffffffffff1673ffffffffffffffffffffffffffffffffffffffff1681526020019081526020015f205f8973ffffffffffffffffffffffffffffffffffffffff1673ffffffffffffffffffffffffffffffffffffffff1681526020019081526020015f205f828254610f1391906143ae565b925050819055505f8773ffffffffffffffffffffffffffffffffffffffff1682604051610f3f9061440e565b5f6040518083038185875af1925050503d805f8114610f79576040519150601f19603f3d011682016040523d82523d5f602084013e610f7e565b606091505b5050905080610fc2576040517f08c379a0000000000000000000000000000000000000000000000000000000008152600401610fb99061446c565b60405180910390fd5b5f8234610fcf919061426a565b90505f811115611083575f3373ffffffffffffffffffffffffffffffffffffffff1682604051610ffe9061440e565b5f6040518083038185875af1925050503d805f8114611038576040519150601f19603f3d011682016040523d82523d5f602084013e61103d565b606091505b5050905080611081576040517f08c379a0000000000000000000000000000000000000000000000000000000008152600401611078906144d4565b60405180910390fd5b505b8873ffffffffffffffffffffffffffffffffffffffff163373ffffffffffffffffffffffffffffffffffffffff167f5e4161d0847b1d21c1667aaf2c175624810f807ccad06cbb2166fa2d81ccee8a8a86426040516110e49392919061347a565b60405180910390a3505050505050506110fb612e69565b5050565b5f600480549050905090565b6298968081565b606481565b61111f612e72565b611127612ef9565b565b60606040518060400160405280601281526020017f322e312e302d50726f66657373696f6e616c0000000000000000000000000000815250905090565b5f5f5f8360025f8273ffffffffffffffffffffffffffffffffffffffff1673ffffffffffffffffffffffffffffffffffffffff1681526020019081526020015f206007015f9054906101000a900460ff166111f6576040517f08c379a00000000000000000000000000000000000000000000000000000000081526004016111ed906140e7565b60405180910390fd5b5f60025f8773ffffffffffffffffffffffffffffffffffffffff1673ffffffffffffffffffffffffffffffffffffffff1681526020019081526020015f20604051806101200160405290815f8201805461124f90613db4565b80601f016020809104026020016040519081016040528092919081815260200182805461127b90613db4565b80156112c65780601f1061129d576101008083540402835291602001916112c6565b820191905f5260205f20905b8154815290600101906020018083116112a957829003601f168201915b505050505081526020016001820180546112df90613db4565b80601f016020809104026020016040519081016040528092919081815260200182805461130b90613db4565b80156113565780601f1061132d57610100808354040283529160200191611356565b820191905f5260205f20905b81548152906001019060200180831161133957829003601f168201915b5050505050815260200160028201805461136f90613db4565b80601f016020809104026020016040519081016040528092919081815260200182805461139b90613db4565b80156113e65780601f106113bd576101008083540402835291602001916113e6565b820191905f5260205f20905b8154815290600101906020018083116113c957829003601f168201915b5050505050815260200160038201548152602001600482015481526020016005820154815260200160068201548152602001600782015f9054906101000a900460ff161515151581526020016007820160019054906101000a900460ff16151515158152505090505f816060015103611468575f5f5f945094509450506114b3565b80606001516127108260a0015161147f9190614305565b611489919061451f565b945084612710611499919061426a565b935080608001518160a001516114af9190614305565b9250505b509193909250565b5f60015f9054906101000a900460ff16905090565b6114d8612e72565b6114e15f612f5a565b565b6002602052805f5260405f205f91509050805f01805461150290613db4565b80601f016020809104026020016040519081016040528092919081815260200182805461152e90613db4565b80156115795780601f1061155057610100808354040283529160200191611579565b820191905f5260205f20905b81548152906001019060200180831161155c57829003601f168201915b50505050509080600101805461158e90613db4565b80601f01602080910402602001604051908101604052809291908181526020018280546115ba90613db4565b80156116055780601f106115dc57610100808354040283529160200191611605565b820191905f5260205f20905b8154815290600101906020018083116115e857829003601f168201915b50505050509080600201805461161a90613db4565b80601f016020809104026020016040519081016040528092919081815260200182805461164690613db4565b80156116915780601f1061166857610100808354040283529160200191611691565b820191905f5260205f20905b81548152906001019060200180831161167457829003601f168201915b505050505090806003015490806004015490806005015490806006015490806007015f9054906101000a900460ff16908060070160019054906101000a900460ff16905089565b5f8160025f8273ffffffffffffffffffffffffffffffffffffffff1673ffffffffffffffffffffffffffffffffffffffff1681526020019081526020015f206007015f9054906101000a900460ff16611766576040517f08c379a000000000000000000000000000000000000000000000000000000000815260040161175d906140e7565b60405180910390fd5b5f60025f8573ffffffffffffffffffffffffffffffffffffffff1673ffffffffffffffffffffffffffffffffffffffff1681526020019081526020015f20604051806101200160405290815f820180546117bf90613db4565b80601f01602080910402602001604051908101604052809291908181526020018280546117eb90613db4565b80156118365780601f1061180d57610100808354040283529160200191611836565b820191905f5260205f20905b81548152906001019060200180831161181957829003601f168201915b5050505050815260200160018201805461184f90613db4565b80601f016020809104026020016040519081016040528092919081815260200182805461187b90613db4565b80156118c65780601f1061189d576101008083540402835291602001916118c6565b820191905f5260205f20905b8154815290600101906020018083116118a957829003601f168201915b505050505081526020016002820180546118df90613db4565b80601f016020809104026020016040519081016040528092919081815260200182805461190b90613db4565b80156119565780601f1061192d57610100808354040283529160200191611956565b820191905f5260205f20905b81548152906001019060200180831161193957829003601f168201915b5050505050815260200160038201548152602001600482015481526020016005820154815260200160068201548152602001600782015f9054906101000a900460ff161515151581526020016007820160019054906101000a900460ff16151515158152505090505f8160600151036119d2575f925050611a70565b5f60035f8773ffffffffffffffffffffffffffffffffffffffff1673ffffffffffffffffffffffffffffffffffffffff1681526020019081526020015f205f8673ffffffffffffffffffffffffffffffffffffffff1673ffffffffffffffffffffffffffffffffffffffff1681526020019081526020015f20549050816060015161271082611a619190614305565b611a6b919061451f565b935050505b5092915050565b611a7f612e72565b611a8761301c565b565b60606004805480602002602001604051908101604052809291908181526020018280548015611b0a57602002820191905f5260205f20905b815f9054906101000a900473ffffffffffffffffffffffffffffffffffffffff1673ffffffffffffffffffffffffffffffffffffffff1681526020019060010190808311611ac1575b5050505050905090565b5f60018054906101000a900473ffffffffffffffffffffffffffffffffffffffff16905090565b6103e881565b6003602052815f5260405f20602052805f5260405f205f91509150505481565b3360025f8273ffffffffffffffffffffffffffffffffffffffff1673ffffffffffffffffffffffffffffffffffffffff1681526020019081526020015f206007015f9054906101000a900460ff16611bee576040517f08c379a0000000000000000000000000000000000000000000000000000000008152600401611be5906140e7565b60405180910390fd5b5f835111611c31576040517f08c379a0000000000000000000000000000000000000000000000000000000008152600401611c2890613c99565b60405180910390fd5b6103e883511115611c77576040517f08c379a0000000000000000000000000000000000000000000000000000000008152600401611c6e90613d01565b60405180910390fd5b60c882511115611cbc576040517f08c379a0000000000000000000000000000000000000000000000000000000008152600401611cb390613d69565b60405180910390fd5b5f60025f3373ffffffffffffffffffffffffffffffffffffffff1673ffffffffffffffffffffffffffffffffffffffff1681526020019081526020015f20905083816001019081611d0d9190613f84565b5082816002019081611d1f9190613f84565b503373ffffffffffffffffffffffffffffffffffffffff167ffd6de4c94a04d613c3fa92d2410503f6e1cd00738455dc00b4a32a66355f207a8585604051611d6892919061454f565b60405180910390a250505050565b5f60025f8373ffffffffffffffffffffffffffffffffffffffff1673ffffffffffffffffffffffffffffffffffffffff1681526020019081526020015f206007015f9054906101000a900460ff169050919050565b655af3107a400081565b60606004805490508310611e1e576040517f08c379a0000000000000000000000000000000000000000000000000000000008152600401611e15906145ce565b60405180910390fd5b5f8284611e2b91906143ae565b9050600480549050811115611e435760048054905090505b5f8482611e50919061426a565b90508067ffffffffffffffff811115611e6c57611e6b61311e565b5b604051908082528060200260200182016040528015611e9a5781602001602082028036833780820191505090505b5092505f5f90505b81811015611f4b5760048187611eb891906143ae565b81548110611ec957611ec86145ec565b5b905f5260205f20015f9054906101000a900473ffffffffffffffffffffffffffffffffffffffff16848281518110611f0457611f036145ec565b5b602002602001019073ffffffffffffffffffffffffffffffffffffffff16908173ffffffffffffffffffffffffffffffffffffffff16815250508080600101915050611ea2565b50505092915050565b5f60035f8473ffffffffffffffffffffffffffffffffffffffff1673ffffffffffffffffffffffffffffffffffffffff1681526020019081526020015f205f8373ffffffffffffffffffffffffffffffffffffffff1673ffffffffffffffffffffffffffffffffffffffff1681526020019081526020015f2054905092915050565b60608060605f8560025f8273ffffffffffffffffffffffffffffffffffffffff1673ffffffffffffffffffffffffffffffffffffffff1681526020019081526020015f206007015f9054906101000a900460ff16612069576040517f08c379a0000000000000000000000000000000000000000000000000000000008152600401612060906140e7565b60405180910390fd5b5f60025f8973ffffffffffffffffffffffffffffffffffffffff1673ffffffffffffffffffffffffffffffffffffffff1681526020019081526020015f20604051806101200160405290815f820180546120c290613db4565b80601f01602080910402602001604051908101604052809291908181526020018280546120ee90613db4565b80156121395780601f1061211057610100808354040283529160200191612139565b820191905f5260205f20905b81548152906001019060200180831161211c57829003601f168201915b5050505050815260200160018201805461215290613db4565b80601f016020809104026020016040519081016040528092919081815260200182805461217e90613db4565b80156121c95780601f106121a0576101008083540402835291602001916121c9565b820191905f5260205f20905b8154815290600101906020018083116121ac57829003601f168201915b505050505081526020016002820180546121e290613db4565b80601f016020809104026020016040519081016040528092919081815260200182805461220e90613db4565b80156122595780601f1061223057610100808354040283529160200191612259565b820191905f5260205f20905b81548152906001019060200180831161223c57829003601f168201915b5050505050815260200160038201548152602001600482015481526020016005820154815260200160068201548152602001600782015f9054906101000a900460ff161515151581526020016007820160019054906101000a900460ff16151515158152505090505f5f90505f5f90505b600480549050811080156122dd57508882105b156123c4575f600482815481106122f7576122f66145ec565b5b905f5260205f20015f9054906101000a900473ffffffffffffffffffffffffffffffffffffffff1690505f60035f8373ffffffffffffffffffffffffffffffffffffffff1673ffffffffffffffffffffffffffffffffffffffff1681526020019081526020015f205f8d73ffffffffffffffffffffffffffffffffffffffff1673ffffffffffffffffffffffffffffffffffffffff1681526020019081526020015f205411156123b05782806123ac90614619565b9350505b5080806123bc90614619565b9150506122ca565b505f811480156123d757505f8260a00151115b156124c7575f67ffffffffffffffff8111156123f6576123f561311e565b5b6040519080825280602002602001820160405280156124245781602001602082028036833780820191505090505b505f67ffffffffffffffff81111561243f5761243e61311e565b5b60405190808252806020026020018201604052801561246d5781602001602082028036833780820191505090505b505f67ffffffffffffffff8111156124885761248761311e565b5b6040519080825280602002602001820160405280156124b65781602001602082028036833780820191505090505b505f96509650965096505050612774565b8067ffffffffffffffff8111156124e1576124e061311e565b5b60405190808252806020026020018201604052801561250f5781602001602082028036833780820191505090505b5096508067ffffffffffffffff81111561252c5761252b61311e565b5b60405190808252806020026020018201604052801561255a5781602001602082028036833780820191505090505b5095508067ffffffffffffffff8111156125775761257661311e565b5b6040519080825280602002602001820160405280156125a55781602001602082028036833780820191505090505b5094505f5f90505f5f90505b600480549050811080156125c457508282105b1561276c575f600482815481106125de576125dd6145ec565b5b905f5260205f20015f9054906101000a900473ffffffffffffffffffffffffffffffffffffffff1690505f60035f8373ffffffffffffffffffffffffffffffffffffffff1673ffffffffffffffffffffffffffffffffffffffff1681526020019081526020015f205f8e73ffffffffffffffffffffffffffffffffffffffff1673ffffffffffffffffffffffffffffffffffffffff1681526020019081526020015f205490505f81111561275757818b85815181106126a05761269f6145ec565b5b602002602001019073ffffffffffffffffffffffffffffffffffffffff16908173ffffffffffffffffffffffffffffffffffffffff1681525050808a85815181106126ee576126ed6145ec565b5b6020026020010181815250505f86606001511161270b575f612729565b85606001516127108261271e9190614305565b612728919061451f565b5b89858151811061273c5761273b6145ec565b5b602002602001018181525050838061275390614619565b9450505b5050808061276490614619565b9150506125b1565b508194505050505b5092959194509250565b612786612e72565b61278e61307d565b5f4790505f81116127d4576040517f08c379a00000000000000000000000000000000000000000000000000000000081526004016127cb906146aa565b60405180910390fd5b5f6127dd611b14565b73ffffffffffffffffffffffffffffffffffffffff16826040516128009061440e565b5f6040518083038185875af1925050503d805f811461283a576040519150601f19603f3d011682016040523d82523d5f602084013e61283f565b606091505b5050905080612883576040517f08c379a000000000000000000000000000000000000000000000000000000000815260040161287a90614712565b60405180910390fd5b61288b611b14565b73ffffffffffffffffffffffffffffffffffffffff167f5fafa99d0643513820be26656b45130b01e1c03062e1266bf36f88cbd3bd9695836040516128d091906130dc565b60405180910390a25050565b60608060605f5f5f5f5f5f8960025f8273ffffffffffffffffffffffffffffffffffffffff1673ffffffffffffffffffffffffffffffffffffffff1681526020019081526020015f206007015f9054906101000a900460ff16612974576040517f08c379a000000000000000000000000000000000000000000000000000000000815260040161296b906140e7565b60405180910390fd5b5f60025f8d73ffffffffffffffffffffffffffffffffffffffff1673ffffffffffffffffffffffffffffffffffffffff1681526020019081526020015f20604051806101200160405290815f820180546129cd90613db4565b80601f01602080910402602001604051908101604052809291908181526020018280546129f990613db4565b8015612a445780601f10612a1b57610100808354040283529160200191612a44565b820191905f5260205f20905b815481529060010190602001808311612a2757829003601f168201915b50505050508152602001600182018054612a5d90613db4565b80601f0160208091040260200160405190810160405280929190818152602001828054612a8990613db4565b8015612ad45780601f10612aab57610100808354040283529160200191612ad4565b820191905f5260205f20905b815481529060010190602001808311612ab757829003601f168201915b50505050508152602001600282018054612aed90613db4565b80601f0160208091040260200160405190810160405280929190818152602001828054612b1990613db4565b8015612b645780601f10612b3b57610100808354040283529160200191612b64565b820191905f5260205f20905b815481529060010190602001808311612b4757829003601f168201915b5050505050815260200160038201548152602001600482015481526020016005820154815260200160068201548152602001600782015f9054906101000a900460ff161515151581526020016007820160019054906101000a900460ff1615151515815250509050805f015181602001518260400151836060015184608001518560a001518660a001518760600151612bfd919061426a565b8760c001518861010001519a509a509a509a509a509a509a509a509a5050509193959799909294969850565b612c31612e72565b5f73ffffffffffffffffffffffffffffffffffffffff168173ffffffffffffffffffffffffffffffffffffffff1603612ca1575f6040517f1e4fbdf7000000000000000000000000000000000000000000000000000000008152600401612c9891906136a6565b60405180910390fd5b612caa81612f5a565b50565b3360025f8273ffffffffffffffffffffffffffffffffffffffff1673ffffffffffffffffffffffffffffffffffffffff1681526020019081526020015f206007015f9054906101000a900460ff16612d3a576040517f08c379a0000000000000000000000000000000000000000000000000000000008152600401612d31906140e7565b60405180910390fd5b8160025f3373ffffffffffffffffffffffffffffffffffffffff1673ffffffffffffffffffffffffffffffffffffffff1681526020019081526020015f2060070160016101000a81548160ff0219169083151502179055503373ffffffffffffffffffffffffffffffffffffffff167fd7870c5b13246f0ea5b545821fc2e6e1aeac31781cc50967995668b1559f606783604051612dd891906134c9565b60405180910390a25050565b612dec6114bb565b15612e23576040517fd93c066500000000000000000000000000000000000000000000000000000000815260040160405180910390fd5b565b60025f5403612e60576040517f3ee5aeb500000000000000000000000000000000000000000000000000000000815260040160405180910390fd5b60025f81905550565b60015f81905550565b612e7a6130bd565b73ffffffffffffffffffffffffffffffffffffffff16612e98611b14565b73ffffffffffffffffffffffffffffffffffffffff1614612ef757612ebb6130bd565b6040517f118cdaa7000000000000000000000000000000000000000000000000000000008152600401612eee91906136a6565b60405180910390fd5b565b612f0161307d565b5f60015f6101000a81548160ff0219169083151502179055507f5db9ee0a495bf2e6ff9c91a7834c1ba4fdd244a5e8aa4e537bd38aeae4b073aa612f436130bd565b604051612f5091906136a6565b60405180910390a1565b5f60018054906101000a900473ffffffffffffffffffffffffffffffffffffffff169050816001806101000a81548173ffffffffffffffffffffffffffffffffffffffff021916908373ffffffffffffffffffffffffffffffffffffffff1602179055508173ffffffffffffffffffffffffffffffffffffffff168173ffffffffffffffffffffffffffffffffffffffff167f8be0079c531659141344cd1fd0a4f28419497f9722a3daafe3b4186f6b6457e060405160405180910390a35050565b613024612de4565b6001805f6101000a81548160ff0219169083151502179055507f62e78cea01bee320cd4e420270b5ea74000d11b0c9f74754ebdbfc544b05a2586130666130bd565b60405161307391906136a6565b60405180910390a1565b6130856114bb565b6130bb576040517f8dfc202b00000000000000000000000000000000000000000000000000000000815260040160405180910390fd5b565b5f33905090565b5f819050919050565b6130d6816130c4565b82525050565b5f6020820190506130ef5f8301846130cd565b92915050565b5f604051905090565b5f5ffd5b5f5ffd5b5f5ffd5b5f5ffd5b5f601f19601f8301169050919050565b7f4e487b71000000000000000000000000000000000000000000000000000000005f52604160045260245ffd5b6131548261310e565b810181811067ffffffffffffffff821117156131735761317261311e565b5b80604052505050565b5f6131856130f5565b9050613191828261314b565b919050565b5f67ffffffffffffffff8211156131b0576131af61311e565b5b6131b98261310e565b9050602081019050919050565b828183375f83830152505050565b5f6131e66131e184613196565b61317c565b9050828152602081018484840111156132025761320161310a565b5b61320d8482856131c6565b509392505050565b5f82601f83011261322957613228613106565b5b81356132398482602086016131d4565b91505092915050565b61324b816130c4565b8114613255575f5ffd5b50565b5f8135905061326681613242565b92915050565b5f5f5f5f5f60a08688031215613285576132846130fe565b5b5f86013567ffffffffffffffff8111156132a2576132a1613102565b5b6132ae88828901613215565b955050602086013567ffffffffffffffff8111156132cf576132ce613102565b5b6132db88828901613215565b945050604086013567ffffffffffffffff8111156132fc576132fb613102565b5b61330888828901613215565b935050606061331988828901613258565b925050608061332a88828901613258565b9150509295509295909350565b5f73ffffffffffffffffffffffffffffffffffffffff82169050919050565b5f61336082613337565b9050919050565b61337081613356565b811461337a575f5ffd5b50565b5f8135905061338b81613367565b92915050565b5f5f604083850312156133a7576133a66130fe565b5b5f6133b48582860161337d565b92505060206133c585828601613258565b9150509250929050565b5f81519050919050565b5f82825260208201905092915050565b8281835e5f83830152505050565b5f613401826133cf565b61340b81856133d9565b935061341b8185602086016133e9565b6134248161310e565b840191505092915050565b5f6020820190508181035f83015261344781846133f7565b905092915050565b5f60208284031215613464576134636130fe565b5b5f6134718482850161337d565b91505092915050565b5f60608201905061348d5f8301866130cd565b61349a60208301856130cd565b6134a760408301846130cd565b949350505050565b5f8115159050919050565b6134c3816134af565b82525050565b5f6020820190506134dc5f8301846134ba565b92915050565b5f610120820190508181035f8301526134fb818c6133f7565b9050818103602083015261350f818b6133f7565b90508181036040830152613523818a6133f7565b905061353260608301896130cd565b61353f60808301886130cd565b61354c60a08301876130cd565b61355960c08301866130cd565b61356660e08301856134ba565b6135746101008301846134ba565b9a9950505050505050505050565b5f5f60408385031215613598576135976130fe565b5b5f6135a58582860161337d565b92505060206135b68582860161337d565b9150509250929050565b5f81519050919050565b5f82825260208201905092915050565b5f819050602082019050919050565b6135f281613356565b82525050565b5f61360383836135e9565b60208301905092915050565b5f602082019050919050565b5f613625826135c0565b61362f81856135ca565b935061363a836135da565b805f5b8381101561366a57815161365188826135f8565b975061365c8361360f565b92505060018101905061363d565b5085935050505092915050565b5f6020820190508181035f83015261368f818461361b565b905092915050565b6136a081613356565b82525050565b5f6020820190506136b95f830184613697565b92915050565b5f5f604083850312156136d5576136d46130fe565b5b5f83013567ffffffffffffffff8111156136f2576136f1613102565b5b6136fe85828601613215565b925050602083013567ffffffffffffffff81111561371f5761371e613102565b5b61372b85828601613215565b9150509250929050565b5f5f6040838503121561374b5761374a6130fe565b5b5f61375885828601613258565b925050602061376985828601613258565b9150509250929050565b5f81519050919050565b5f82825260208201905092915050565b5f819050602082019050919050565b6137a5816130c4565b82525050565b5f6137b6838361379c565b60208301905092915050565b5f602082019050919050565b5f6137d882613773565b6137e2818561377d565b93506137ed8361378d565b805f5b8381101561381d57815161380488826137ab565b975061380f836137c2565b9250506001810190506137f0565b5085935050505092915050565b5f6080820190508181035f830152613842818761361b565b9050818103602083015261385681866137ce565b9050818103604083015261386a81856137ce565b905061387960608301846130cd565b95945050505050565b5f610120820190508181035f83015261389b818c6133f7565b905081810360208301526138af818b6133f7565b905081810360408301526138c3818a6133f7565b90506138d260608301896130cd565b6138df60808301886130cd565b6138ec60a08301876130cd565b6138f960c08301866130cd565b61390660e08301856130cd565b6139146101008301846134ba565b9a9950505050505050505050565b61392b816134af565b8114613935575f5ffd5b50565b5f8135905061394681613922565b92915050565b5f60208284031215613961576139606130fe565b5b5f61396e84828501613938565b91505092915050565b7f537570706c792062656c6f77206d696e696d756d0000000000000000000000005f82015250565b5f6139ab6014836133d9565b91506139b682613977565b602082019050919050565b5f6020820190508181035f8301526139d88161399f565b9050919050565b7f537570706c792061626f7665206d6178696d756d0000000000000000000000005f82015250565b5f613a136014836133d9565b9150613a1e826139df565b602082019050919050565b5f6020820190508181035f830152613a4081613a07565b9050919050565b7f50726963652062656c6f77206d696e696d756d000000000000000000000000005f82015250565b5f613a7b6013836133d9565b9150613a8682613a47565b602082019050919050565b5f6020820190508181035f830152613aa881613a6f565b9050919050565b7f50726963652061626f7665206d6178696d756d000000000000000000000000005f82015250565b5f613ae36013836133d9565b9150613aee82613aaf565b602082019050919050565b5f6020820190508181035f830152613b1081613ad7565b9050919050565b7f436f696e20616c726561647920657869737473000000000000000000000000005f82015250565b5f613b4b6013836133d9565b9150613b5682613b17565b602082019050919050565b5f6020820190508181035f830152613b7881613b3f565b9050919050565b7f50726f6a656374206e616d6520726571756972656400000000000000000000005f82015250565b5f613bb36015836133d9565b9150613bbe82613b7f565b602082019050919050565b5f6020820190508181035f830152613be081613ba7565b9050919050565b7f50726f6a656374206e616d6520746f6f206c6f6e6700000000000000000000005f82015250565b5f613c1b6015836133d9565b9150613c2682613be7565b602082019050919050565b5f6020820190508181035f830152613c4881613c0f565b9050919050565b7f4465736372697074696f6e2072657175697265640000000000000000000000005f82015250565b5f613c836014836133d9565b9150613c8e82613c4f565b602082019050919050565b5f6020820190508181035f830152613cb081613c77565b9050919050565b7f4465736372697074696f6e20746f6f206c6f6e670000000000000000000000005f82015250565b5f613ceb6014836133d9565b9150613cf682613cb7565b602082019050919050565b5f6020820190508181035f830152613d1881613cdf565b9050919050565b7f576562736974652055524c20746f6f206c6f6e670000000000000000000000005f82015250565b5f613d536014836133d9565b9150613d5e82613d1f565b602082019050919050565b5f6020820190508181035f830152613d8081613d47565b9050919050565b7f4e487b71000000000000000000000000000000000000000000000000000000005f52602260045260245ffd5b5f6002820490506001821680613dcb57607f821691505b602082108103613dde57613ddd613d87565b5b50919050565b5f819050815f5260205f209050919050565b5f6020601f8301049050919050565b5f82821b905092915050565b5f60088302613e407fffffffffffffffffffffffffffffffffffffffffffffffffffffffffffffffff82613e05565b613e4a8683613e05565b95508019841693508086168417925050509392505050565b5f819050919050565b5f613e85613e80613e7b846130c4565b613e62565b6130c4565b9050919050565b5f819050919050565b613e9e83613e6b565b613eb2613eaa82613e8c565b848454613e11565b825550505050565b5f5f905090565b613ec9613eba565b613ed4818484613e95565b505050565b5b81811015613ef757613eec5f82613ec1565b600181019050613eda565b5050565b601f821115613f3c57613f0d81613de4565b613f1684613df6565b81016020851015613f25578190505b613f39613f3185613df6565b830182613ed9565b50505b505050565b5f82821c905092915050565b5f613f5c5f1984600802613f41565b1980831691505092915050565b5f613f748383613f4d565b9150826002028217905092915050565b613f8d826133cf565b67ffffffffffffffff811115613fa657613fa561311e565b5b613fb08254613db4565b613fbb828285613efb565b5f60209050601f831160018114613fec575f8415613fda578287015190505b613fe48582613f69565b86555061404b565b601f198416613ffa86613de4565b5f5b8281101561402157848901518255600182019150602085019450602081019050613ffc565b8683101561403e578489015161403a601f891682613f4d565b8355505b6001600288020188555050505b505050505050565b5f6080820190508181035f83015261406b81876133f7565b905061407a60208301866130cd565b61408760408301856130cd565b61409460608301846130cd565b95945050505050565b7f436f696e20646f65736e277420657869737400000000000000000000000000005f82015250565b5f6140d16012836133d9565b91506140dc8261409d565b602082019050919050565b5f6020820190508181035f8301526140fe816140c5565b9050919050565b7f436f696e206973206e6f742061637469766500000000000000000000000000005f82015250565b5f6141396012836133d9565b915061414482614105565b602082019050919050565b5f6020820190508181035f8301526141668161412d565b9050919050565b7f416d6f756e74206d757374206265203e203000000000000000000000000000005f82015250565b5f6141a16012836133d9565b91506141ac8261416d565b602082019050919050565b5f6020820190508181035f8301526141ce81614195565b9050919050565b7f43616e27742062757920796f7572206f776e20636f696e7300000000000000005f82015250565b5f6142096018836133d9565b9150614214826141d5565b602082019050919050565b5f6020820190508181035f830152614236816141fd565b9050919050565b7f4e487b71000000000000000000000000000000000000000000000000000000005f52601160045260245ffd5b5f614274826130c4565b915061427f836130c4565b92508282039050818111156142975761429661423d565b5b92915050565b7f4e6f7420656e6f75676820636f696e7320617661696c61626c650000000000005f82015250565b5f6142d1601a836133d9565b91506142dc8261429d565b602082019050919050565b5f6020820190508181035f8301526142fe816142c5565b9050919050565b5f61430f826130c4565b915061431a836130c4565b9250828202614328816130c4565b9150828204841483151761433f5761433e61423d565b5b5092915050565b7f496e73756666696369656e74207061796d656e740000000000000000000000005f82015250565b5f61437a6014836133d9565b915061438582614346565b602082019050919050565b5f6020820190508181035f8301526143a78161436e565b9050919050565b5f6143b8826130c4565b91506143c3836130c4565b92508282019050808211156143db576143da61423d565b5b92915050565b5f81905092915050565b50565b5f6143f95f836143e1565b9150614404826143eb565b5f82019050919050565b5f614418826143ee565b9150819050919050565b7f5472616e7366657220746f20656e7472657072656e657572206661696c6564005f82015250565b5f614456601f836133d9565b915061446182614422565b602082019050919050565b5f6020820190508181035f8301526144838161444a565b9050919050565b7f526566756e64206661696c6564000000000000000000000000000000000000005f82015250565b5f6144be600d836133d9565b91506144c98261448a565b602082019050919050565b5f6020820190508181035f8301526144eb816144b2565b9050919050565b7f4e487b71000000000000000000000000000000000000000000000000000000005f52601260045260245ffd5b5f614529826130c4565b9150614534836130c4565b925082614544576145436144f2565b5b828204905092915050565b5f6040820190508181035f83015261456781856133f7565b9050818103602083015261457b81846133f7565b90509392505050565b7f4f6666736574206f7574206f6620626f756e64730000000000000000000000005f82015250565b5f6145b86014836133d9565b91506145c382614584565b602082019050919050565b5f6020820190508181035f8301526145e5816145ac565b9050919050565b7f4e487b71000000000000000000000000000000000000000000000000000000005f52603260045260245ffd5b5f614623826130c4565b91507fffffffffffffffffffffffffffffffffffffffffffffffffffffffffffffffff82036146555761465461423d565b5b600182019050919050565b7f4e6f2062616c616e636520746f207769746864726177000000000000000000005f82015250565b5f6146946016836133d9565b915061469f82614660565b602082019050919050565b5f6020820190508181035f8301526146c181614688565b9050919050565b7f456d657267656e6379207769746864726177206661696c6564000000000000005f82015250565b5f6146fc6019836133d9565b9150614707826146c8565b602082019050919050565b5f6020820190508181035f830152614729816146f0565b905091905056fea264697066735822122067a3f9f5f85f16fb1ad75e4b7b0674ae381ed9496c70f6106bcd0332a86859cb64736f6c634300081c0033",
  "linkReferences": {},
  "deployedLinkReferences": {},
  "immutableReferences": {},
  "inputSourceName": "project/contracts/GoInvestMeCore.sol",
  "buildInfoId": "solc-0_8_28-211051e4cb0d9f2f2eaa890cca860576b36ee9c0"
}